{
  "contractName": "Games",
  "abi": [
    {
      "constant": true,
      "inputs": [],
      "name": "userCount",
      "outputs": [
        {
          "name": "",
          "type": "uint256"
        }
      ],
      "payable": false,
      "stateMutability": "view",
      "type": "function"
    },
    {
      "constant": true,
      "inputs": [
        {
          "name": "",
          "type": "uint256"
        }
      ],
      "name": "games",
      "outputs": [
        {
          "name": "id",
          "type": "uint256"
        },
        {
          "name": "name",
          "type": "string"
        },
        {
          "name": "value",
          "type": "uint256"
        },
        {
          "name": "imageData",
          "type": "string"
        },
        {
          "name": "gameOwner",
          "type": "address"
        },
        {
          "name": "description",
          "type": "string"
        }
      ],
      "payable": false,
      "stateMutability": "view",
      "type": "function"
    },
    {
      "constant": true,
      "inputs": [],
      "name": "gameCount",
      "outputs": [
        {
          "name": "",
          "type": "uint256"
        }
      ],
      "payable": false,
      "stateMutability": "view",
      "type": "function"
    },
    {
      "constant": true,
      "inputs": [
        {
          "name": "",
          "type": "bytes32"
        }
      ],
      "name": "gameList",
      "outputs": [
        {
          "name": "",
          "type": "bool"
        }
      ],
      "payable": false,
      "stateMutability": "view",
      "type": "function"
    },
    {
      "constant": true,
      "inputs": [
        {
          "name": "",
          "type": "address"
        }
      ],
      "name": "users",
      "outputs": [
        {
          "name": "id",
          "type": "uint256"
        },
        {
          "name": "addr",
          "type": "address"
        }
      ],
      "payable": false,
      "stateMutability": "view",
      "type": "function"
    },
    {
      "inputs": [],
      "payable": false,
      "stateMutability": "nonpayable",
      "type": "constructor"
    },
    {
      "anonymous": false,
      "inputs": [
        {
          "indexed": false,
          "name": "game",
          "type": "string"
        }
      ],
      "name": "newGameAdd",
      "type": "event"
    },
    {
      "anonymous": false,
      "inputs": [
        {
          "indexed": false,
          "name": "game",
          "type": "string"
        }
      ],
      "name": "gameBought",
      "type": "event"
    },
    {
      "constant": false,
      "inputs": [
        {
          "name": "_name",
          "type": "string"
        },
        {
          "name": "_value",
          "type": "uint256"
        },
        {
          "name": "_data",
          "type": "string"
        },
        {
          "name": "_description",
          "type": "string"
        }
      ],
      "name": "addGame",
      "outputs": [],
      "payable": false,
      "stateMutability": "nonpayable",
      "type": "function"
    },
    {
      "constant": false,
      "inputs": [
        {
          "name": "_gameId",
          "type": "uint256"
        },
        {
          "name": "_name",
          "type": "string"
        }
      ],
      "name": "buyGame",
      "outputs": [],
      "payable": true,
      "stateMutability": "payable",
      "type": "function"
    },
    {
      "constant": true,
      "inputs": [
        {
          "name": "_index",
          "type": "uint256"
        }
      ],
      "name": "getGames",
      "outputs": [
        {
          "name": "",
          "type": "string"
        }
      ],
      "payable": false,
      "stateMutability": "view",
      "type": "function"
    },
    {
      "constant": true,
      "inputs": [],
      "name": "getGamesSize",
      "outputs": [
        {
          "name": "",
          "type": "uint256"
        }
      ],
      "payable": false,
      "stateMutability": "view",
      "type": "function"
    },
    {
      "constant": false,
      "inputs": [
        {
          "name": "addr",
          "type": "address"
        },
        {
          "name": "gameName",
          "type": "string"
        },
        {
          "name": "valor",
          "type": "uint256"
        }
      ],
      "name": "initTrade",
      "outputs": [],
      "payable": false,
      "stateMutability": "nonpayable",
      "type": "function"
    },
    {
      "constant": true,
      "inputs": [],
      "name": "getTrades",
      "outputs": [
        {
          "name": "",
          "type": "address"
        },
        {
          "name": "",
          "type": "string"
        },
        {
          "name": "",
          "type": "uint256"
        }
      ],
      "payable": false,
      "stateMutability": "view",
      "type": "function"
    },
    {
      "constant": false,
      "inputs": [
        {
          "name": "_gameName",
          "type": "string"
        },
        {
          "name": "addr",
          "type": "address"
        }
      ],
      "name": "tradeGame",
      "outputs": [],
      "payable": true,
      "stateMutability": "payable",
      "type": "function"
    }
  ],
  "bytecode": "0x608060405234801561001057600080fd5b50336000806101000a81548173ffffffffffffffffffffffffffffffffffffffff021916908373ffffffffffffffffffffffffffffffffffffffff160217905550612171806100606000396000f3fe6080604052600436106100a75760003560e01c80639b08fb4a116100645780639b08fb4a146106865780639c59155a146106d95780639d6aaa7d146107b4578063a28b796514610868578063a87430ba14610893578063e43372e91461092b576100a7565b806307973ccf146100ac5780630c18397b146100d75780630d6e77ae146101c9578063117a5b90146103c95780634d1975b4146105965780635bcb692c146105c1575b600080fd5b3480156100b857600080fd5b506100c16109f5565b6040518082815260200191505060405180910390f35b3480156100e357600080fd5b506101c7600480360360608110156100fa57600080fd5b81019080803573ffffffffffffffffffffffffffffffffffffffff1690602001909291908035906020019064010000000081111561013757600080fd5b82018360208201111561014957600080fd5b8035906020019184600183028401116401000000008311171561016b57600080fd5b91908080601f016020809104026020016040519081016040528093929190818152602001838380828437600081840152601f19601f820116905080830192505050505050509192919290803590602001909291905050506109fb565b005b3480156101d557600080fd5b506103c7600480360360808110156101ec57600080fd5b810190808035906020019064010000000081111561020957600080fd5b82018360208201111561021b57600080fd5b8035906020019184600183028401116401000000008311171561023d57600080fd5b91908080601f016020809104026020016040519081016040528093929190818152602001838380828437600081840152601f19601f82011690508083019250505050505050919291929080359060200190929190803590602001906401000000008111156102aa57600080fd5b8201836020820111156102bc57600080fd5b803590602001918460018302840111640100000000831117156102de57600080fd5b91908080601f016020809104026020016040519081016040528093929190818152602001838380828437600081840152601f19601f8201169050808301925050505050505091929192908035906020019064010000000081111561034157600080fd5b82018360208201111561035357600080fd5b8035906020019184600183028401116401000000008311171561037557600080fd5b91908080601f016020809104026020016040519081016040528093929190818152602001838380828437600081840152601f19601f820116905080830192505050505050509192919290505050610bb1565b005b3480156103d557600080fd5b50610402600480360360208110156103ec57600080fd5b8101908080359060200190929190505050610ec5565b6040518087815260200180602001868152602001806020018573ffffffffffffffffffffffffffffffffffffffff1673ffffffffffffffffffffffffffffffffffffffff16815260200180602001848103845289818151815260200191508051906020019080838360005b8381101561048857808201518184015260208101905061046d565b50505050905090810190601f1680156104b55780820380516001836020036101000a031916815260200191505b50848103835287818151815260200191508051906020019080838360005b838110156104ee5780820151818401526020810190506104d3565b50505050905090810190601f16801561051b5780820380516001836020036101000a031916815260200191505b50848103825285818151815260200191508051906020019080838360005b83811015610554578082015181840152602081019050610539565b50505050905090810190601f1680156105815780820380516001836020036101000a031916815260200191505b50995050505050505050505060405180910390f35b3480156105a257600080fd5b506105ab6110e9565b6040518082815260200191505060405180910390f35b610684600480360360408110156105d757600080fd5b8101908080359060200190929190803590602001906401000000008111156105fe57600080fd5b82018360208201111561061057600080fd5b8035906020019184600183028401116401000000008311171561063257600080fd5b91908080601f016020809104026020016040519081016040528093929190818152602001838380828437600081840152601f19601f8201169050808301925050505050505091929192905050506110ef565b005b34801561069257600080fd5b506106bf600480360360208110156106a957600080fd5b8101908080359060200190929190505050611491565b604051808215151515815260200191505060405180910390f35b6107b2600480360360408110156106ef57600080fd5b810190808035906020019064010000000081111561070c57600080fd5b82018360208201111561071e57600080fd5b8035906020019184600183028401116401000000008311171561074057600080fd5b91908080601f016020809104026020016040519081016040528093929190818152602001838380828437600081840152601f19601f820116905080830192505050505050509192919290803573ffffffffffffffffffffffffffffffffffffffff1690602001909291905050506114b1565b005b3480156107c057600080fd5b506107ed600480360360208110156107d757600080fd5b8101908080359060200190929190505050611a7d565b6040518080602001828103825283818151815260200191508051906020019080838360005b8381101561082d578082015181840152602081019050610812565b50505050905090810190601f16801561085a5780820380516001836020036101000a031916815260200191505b509250505060405180910390f35b34801561087457600080fd5b5061087d611b76565b6040518082815260200191505060405180910390f35b34801561089f57600080fd5b506108e2600480360360208110156108b657600080fd5b81019080803573ffffffffffffffffffffffffffffffffffffffff169060200190929190505050611bc3565b604051808381526020018273ffffffffffffffffffffffffffffffffffffffff1673ffffffffffffffffffffffffffffffffffffffff1681526020019250505060405180910390f35b34801561093757600080fd5b50610940611c07565b604051808473ffffffffffffffffffffffffffffffffffffffff1673ffffffffffffffffffffffffffffffffffffffff16815260200180602001838152602001828103825284818151815260200191508051906020019080838360005b838110156109b857808201518184015260208101905061099d565b50505050905090810190601f1680156109e55780820380516001836020036101000a031916815260200191505b5094505050505060405180910390f35b60055481565b8273ffffffffffffffffffffffffffffffffffffffff163373ffffffffffffffffffffffffffffffffffffffff161415610a9d576040517f08c379a000000000000000000000000000000000000000000000000000000000815260040180806020018281038252601c8152602001807f557365722063616e7420747261646520776974682068696d73656c660000000081525060200191505060405180910390fd5b600260008473ffffffffffffffffffffffffffffffffffffffff1673ffffffffffffffffffffffffffffffffffffffff16815260200190815260200160002060040160405180606001604052803373ffffffffffffffffffffffffffffffffffffffff168152602001848152602001838152509080600181540180825580915050906001820390600052602060002090600302016000909192909190915060008201518160000160006101000a81548173ffffffffffffffffffffffffffffffffffffffff021916908373ffffffffffffffffffffffffffffffffffffffff1602179055506020820151816001019080519060200190610b9e929190611ecf565b5060408201518160020155505050505050565b6000846040516020018080602001828103825283818151815260200191508051906020019080838360005b83811015610bf7578082015181840152602081019050610bdc565b50505050905090810190601f168015610c245780820380516001836020036101000a031916815260200191505b50925050506040516020818303038152906040528051906020012090506003600082815260200190815260200160002060009054906101000a900460ff1615610cd5576040517f08c379a00000000000000000000000000000000000000000000000000000000081526004018080602001828103825260138152602001807f47616d6520616c7265616479206578697374730000000000000000000000000081525060200191505060405180910390fd5b6004600081548092919060010191905055506040518060c0016040528060045481526020018681526020018581526020018481526020013373ffffffffffffffffffffffffffffffffffffffff16815260200183815250600160006004548152602001908152602001600020600082015181600001556020820151816001019080519060200190610d67929190611ecf565b50604082015181600201556060820151816003019080519060200190610d8e929190611ecf565b5060808201518160040160006101000a81548173ffffffffffffffffffffffffffffffffffffffff021916908373ffffffffffffffffffffffffffffffffffffffff16021790555060a0820151816005019080519060200190610df2929190611ecf565b5090505060016003600083815260200190815260200160002060006101000a81548160ff0219169083151502179055507fb58c4cbddf0a8a365cdc03d4f9dd16e62a97a6fcd26d18d1174735fa8f4e0b92856040518080602001828103825283818151815260200191508051906020019080838360005b83811015610e84578082015181840152602081019050610e69565b50505050905090810190601f168015610eb15780820380516001836020036101000a031916815260200191505b509250505060405180910390a15050505050565b6001602052806000526040600020600091509050806000015490806001018054600181600116156101000203166002900480601f016020809104026020016040519081016040528092919081815260200182805460018160011615610100020316600290048015610f775780601f10610f4c57610100808354040283529160200191610f77565b820191906000526020600020905b815481529060010190602001808311610f5a57829003601f168201915b505050505090806002015490806003018054600181600116156101000203166002900480601f01602080910402602001604051908101604052809291908181526020018280546001816001161561010002031660029004801561101b5780601f10610ff05761010080835404028352916020019161101b565b820191906000526020600020905b815481529060010190602001808311610ffe57829003601f168201915b5050505050908060040160009054906101000a900473ffffffffffffffffffffffffffffffffffffffff1690806005018054600181600116156101000203166002900480601f0160208091040260200160405190810160405280929190818152602001828054600181600116156101000203166002900480156110df5780601f106110b4576101008083540402835291602001916110df565b820191906000526020600020905b8154815290600101906020018083116110c257829003601f168201915b5050505050905086565b60045481565b600160008381526020019081526020016000206002015434101561117b576040517f08c379a00000000000000000000000000000000000000000000000000000000081526004018080602001828103825260108152602001807f4e6f7420656e6f756768206d6f6e65790000000000000000000000000000000081525060200191505060405180910390fd5b6001600083815260200190815260200160002060040160009054906101000a900473ffffffffffffffffffffffffffffffffffffffff1673ffffffffffffffffffffffffffffffffffffffff166108fc349081150290604051600060405180830381858888f193505050501580156111f7573d6000803e3d6000fd5b50600560008154809291906001019190505550600554600260003373ffffffffffffffffffffffffffffffffffffffff1673ffffffffffffffffffffffffffffffffffffffff1681526020019081526020016000206000018190555033600260003373ffffffffffffffffffffffffffffffffffffffff1673ffffffffffffffffffffffffffffffffffffffff16815260200190815260200160002060010160006101000a81548173ffffffffffffffffffffffffffffffffffffffff021916908373ffffffffffffffffffffffffffffffffffffffff160217905550600260003373ffffffffffffffffffffffffffffffffffffffff1673ffffffffffffffffffffffffffffffffffffffff168152602001908152602001600020600201829080600181540180825580915050906001820390600052602060002001600090919290919091505550600260003373ffffffffffffffffffffffffffffffffffffffff1673ffffffffffffffffffffffffffffffffffffffff1681526020019081526020016000206003018190806001815401808255809150509060018203906000526020600020016000909192909190915090805190602001906113bd929190611f4f565b50507f170bfead71ee0eafa5ee71ce4e426d03afcb28ec220b00d7a2235137170cf96360016000848152602001908152602001600020600101604051808060200182810382528381815460018160011615610100020316600290048152602001915080546001816001161561010002031660029004801561147f5780601f106114545761010080835404028352916020019161147f565b820191906000526020600020905b81548152906001019060200180831161146257829003601f168201915b50509250505060405180910390a15050565b60036020528060005260406000206000915054906101000a900460ff1681565b8073ffffffffffffffffffffffffffffffffffffffff163373ffffffffffffffffffffffffffffffffffffffff161415611553576040517f08c379a000000000000000000000000000000000000000000000000000000000815260040180806020018281038252601c8152602001807f557365722063616e7420747261646520776974682068696d73656c660000000081525060200191505060405180910390fd5b6000600260008373ffffffffffffffffffffffffffffffffffffffff1673ffffffffffffffffffffffffffffffffffffffff16815260200190815260200160002060020180549050905060008090505b81811015611a2957836040516020018082805190602001908083835b602083106115e257805182526020820191506020810190506020830392506115bf565b6001836020036101000a03801982511681845116808217855250505050505090500191505060405160208183030381529060405280519060200120600260008573ffffffffffffffffffffffffffffffffffffffff1673ffffffffffffffffffffffffffffffffffffffff168152602001908152602001600020600301828154811061166a57fe5b9060005260206000200160405160200180828054600181600116156101000203166002900480156116d25780601f106116b05761010080835404028352918201916116d2565b820191906000526020600020905b8154815290600101906020018083116116be575b5050915050604051602081830303815290604052805190602001201415611a1c57600260003373ffffffffffffffffffffffffffffffffffffffff1673ffffffffffffffffffffffffffffffffffffffff168152602001908152602001600020600201600260008573ffffffffffffffffffffffffffffffffffffffff1673ffffffffffffffffffffffffffffffffffffffff168152602001908152602001600020600201828154811061178257fe5b90600052602060002001549080600181540180825580915050906001820390600052602060002001600090919290919091505550600260003373ffffffffffffffffffffffffffffffffffffffff1673ffffffffffffffffffffffffffffffffffffffff168152602001908152602001600020600301600260008573ffffffffffffffffffffffffffffffffffffffff1673ffffffffffffffffffffffffffffffffffffffff168152602001908152602001600020600301828154811061184557fe5b906000526020600020019080600181540180825580915050906001820390600052602060002001600090919290919091509080546001816001161561010002031660029004611895929190611fcf565b5050600260008473ffffffffffffffffffffffffffffffffffffffff1673ffffffffffffffffffffffffffffffffffffffff16815260200190815260200160002060020181815481106118e457fe5b9060005260206000200160009055600260008473ffffffffffffffffffffffffffffffffffffffff1673ffffffffffffffffffffffffffffffffffffffff168152602001908152602001600020600301818154811061193f57fe5b9060005260206000200160006119559190612056565b600260003373ffffffffffffffffffffffffffffffffffffffff1673ffffffffffffffffffffffffffffffffffffffff1681526020019081526020016000206004016000815481106119a357fe5b906000526020600020906003020160000160009054906101000a900473ffffffffffffffffffffffffffffffffffffffff1673ffffffffffffffffffffffffffffffffffffffff166108fc349081150290604051600060405180830381858888f19350505050158015611a1a573d6000803e3d6000fd5b505b80806001019150506115a3565b50600260003373ffffffffffffffffffffffffffffffffffffffff1673ffffffffffffffffffffffffffffffffffffffff1681526020019081526020016000206004016000611a78919061209e565b505050565b6060600260003373ffffffffffffffffffffffffffffffffffffffff1673ffffffffffffffffffffffffffffffffffffffff1681526020019081526020016000206003018281548110611acc57fe5b906000526020600020018054600181600116156101000203166002900480601f016020809104026020016040519081016040528092919081815260200182805460018160011615610100020316600290048015611b6a5780601f10611b3f57610100808354040283529160200191611b6a565b820191906000526020600020905b815481529060010190602001808311611b4d57829003601f168201915b50505050509050919050565b6000600260003373ffffffffffffffffffffffffffffffffffffffff1673ffffffffffffffffffffffffffffffffffffffff16815260200190815260200160002060020180549050905090565b60026020528060005260406000206000915090508060000154908060010160009054906101000a900473ffffffffffffffffffffffffffffffffffffffff16905082565b6000606060008073ffffffffffffffffffffffffffffffffffffffff16600260003373ffffffffffffffffffffffffffffffffffffffff1673ffffffffffffffffffffffffffffffffffffffff168152602001908152602001600020600401600081548110611c7257fe5b906000526020600020906003020160000160009054906101000a900473ffffffffffffffffffffffffffffffffffffffff1673ffffffffffffffffffffffffffffffffffffffff161415611ce5576000808191506040518060200160405280600081525090809050925092509250611eca565b600260003373ffffffffffffffffffffffffffffffffffffffff1673ffffffffffffffffffffffffffffffffffffffff168152602001908152602001600020600401600081548110611d3357fe5b906000526020600020906003020160000160009054906101000a900473ffffffffffffffffffffffffffffffffffffffff16600260003373ffffffffffffffffffffffffffffffffffffffff1673ffffffffffffffffffffffffffffffffffffffff168152602001908152602001600020600401600081548110611db357fe5b9060005260206000209060030201600101600260003373ffffffffffffffffffffffffffffffffffffffff1673ffffffffffffffffffffffffffffffffffffffff168152602001908152602001600020600401600081548110611e1257fe5b906000526020600020906003020160020154829250818054600181600116156101000203166002900480601f016020809104026020016040519081016040528092919081815260200182805460018160011615610100020316600290048015611ebc5780601f10611e9157610100808354040283529160200191611ebc565b820191906000526020600020905b815481529060010190602001808311611e9f57829003601f168201915b505050505091509250925092505b909192565b828054600181600116156101000203166002900490600052602060002090601f016020900481019282601f10611f1057805160ff1916838001178555611f3e565b82800160010185558215611f3e579182015b82811115611f3d578251825591602001919060010190611f22565b5b509050611f4b91906120c2565b5090565b828054600181600116156101000203166002900490600052602060002090601f016020900481019282601f10611f9057805160ff1916838001178555611fbe565b82800160010185558215611fbe579182015b82811115611fbd578251825591602001919060010190611fa2565b5b509050611fcb91906120c2565b5090565b828054600181600116156101000203166002900490600052602060002090601f016020900481019282601f106120085780548555612045565b8280016001018555821561204557600052602060002091601f016020900482015b82811115612044578254825591600101919060010190612029565b5b50905061205291906120c2565b5090565b50805460018160011615610100020316600290046000825580601f1061207c575061209b565b601f01602090049060005260206000209081019061209a91906120c2565b5b50565b50805460008255600302906000526020600020908101906120bf91906120e7565b50565b6120e491905b808211156120e05760008160009055506001016120c8565b5090565b90565b61214291905b8082111561213e57600080820160006101000a81549073ffffffffffffffffffffffffffffffffffffffff021916905560018201600061212d9190612056565b6002820160009055506003016120ed565b5090565b9056fea165627a7a72305820bc56af5d20890679180c5af0d2a0494e3095c02c0b5d419ec88948f06eb7ea400029",
  "source": "pragma solidity ^0.5.8;\ncontract Games {\n\n    address owner;\n\n    constructor () public {\n        owner = msg.sender;\n    }\n\n    struct Game {\n        uint id;\n        string name;\n        uint value;\n        string imageData;\n        address payable gameOwner;\n        string description;\n    }\n\n    struct User {\n        uint id;\n        address addr;\n        uint[] gameOwnedId;\n        string[] gameOwnedName;\n        Trade[] trades;\n    }\n\n    struct Trade {\n        address payable userTrade;\n        string gameName;\n        uint val;\n    }\n\n\n    event newGameAdd(\n        string game\n    );\n\n    event gameBought(\n        string game\n    );\n\n    mapping(uint => Game) public games;\n    mapping(address => User) public users;\n    mapping(bytes32 => bool) public gameList;\n\n    uint public gameCount;\n    uint public userCount;\n\n    function addGame(string memory _name, uint _value, string memory _data, string memory _description) public {\n        bytes32 nameHahsing = keccak256(abi.encode(_name));\n        require(!gameList[nameHahsing], \"Game already exists\");\n\n        gameCount++;\n        games[gameCount] = Game(gameCount, _name, _value, _data, msg.sender, _description);\n        gameList[nameHahsing] = true;\n        emit newGameAdd(_name);\n    }\n\n    function buyGame(uint _gameId, string memory _name) public payable {\n        require(msg.value >= games[_gameId].value, \"Not enough money\");\n\n        games[_gameId].gameOwner.transfer(msg.value);\n\n        userCount++;\n        users[msg.sender].id = userCount;\n        users[msg.sender].addr = msg.sender;\n        users[msg.sender].gameOwnedId.push(_gameId);\n        users[msg.sender].gameOwnedName.push(_name);\n\n        emit gameBought(games[_gameId].name);\n\n    }\n\n    function getGames(uint _index) public view returns (string memory) {\n        return users[msg.sender].gameOwnedName[_index];\n    }\n\n    function getGamesSize() public view returns (uint) {\n        return users[msg.sender].gameOwnedId.length;\n    }\n\n    function initTrade(address addr, string memory gameName, uint valor) public {\n        require(msg.sender != addr, \"User cant trade with himself\");\n        users[addr].trades.push(Trade(msg.sender, gameName, valor));\n    }\n\n    function getTrades() public view returns (address, string memory, uint) {\n        if(users[msg.sender].trades[0].userTrade == address(0)){\n            return (address(0), \"\", 0);\n        }\n        return (users[msg.sender].trades[0].userTrade, users[msg.sender].trades[0].gameName, users[msg.sender].trades[0].val);\n    }\n\n    function tradeGame(string memory _gameName, address addr) public payable {\n        require(msg.sender != addr, \"User cant trade with himself\");\n\n        uint len = users[addr].gameOwnedId.length;\n\n        for(uint i = 0;i < len; i++){\n            if(keccak256(abi.encodePacked(users[addr].gameOwnedName[i])) == keccak256(abi.encodePacked(_gameName))) {\n                users[msg.sender].gameOwnedId.push(users[addr].gameOwnedId[i]);\n                users[msg.sender].gameOwnedName.push(users[addr].gameOwnedName[i]);\n                delete users[addr].gameOwnedId[i];\n                delete users[addr].gameOwnedName[i];\n                users[msg.sender].trades[0].userTrade.transfer(msg.value);\n            }\n        }\n\n        delete users[msg.sender].trades;\n    }\n\n}",
  "sourcePath": "/home/vabows/Documents/marketplace/contracts/Games.sol",
  "compiler": {
    "name": "solc",
    "version": "0.5.8+commit.23d335f2.Emscripten.clang"
  },
  "schemaVersion": "3.0.16",
  "updatedAt": "2019-10-25T04:34:35.405Z",
  "devdoc": {
    "methods": {}
  },
  "userdoc": {
    "methods": {}
  }
}