{
  "contractName": "Games",
  "abi": [
    {
      "constant": true,
      "inputs": [],
      "name": "userCount",
      "outputs": [
        {
          "name": "",
          "type": "uint256"
        }
      ],
      "payable": false,
      "stateMutability": "view",
      "type": "function"
    },
    {
      "constant": true,
      "inputs": [
        {
          "name": "",
          "type": "uint256"
        }
      ],
      "name": "games",
      "outputs": [
        {
          "name": "id",
          "type": "uint256"
        },
        {
          "name": "name",
          "type": "string"
        },
        {
          "name": "value",
          "type": "uint256"
        },
        {
          "name": "imageData",
          "type": "string"
        },
        {
          "name": "gameOwner",
          "type": "address"
        }
      ],
      "payable": false,
      "stateMutability": "view",
      "type": "function"
    },
    {
      "constant": true,
      "inputs": [],
      "name": "gameCount",
      "outputs": [
        {
          "name": "",
          "type": "uint256"
        }
      ],
      "payable": false,
      "stateMutability": "view",
      "type": "function"
    },
    {
      "constant": true,
      "inputs": [
        {
          "name": "",
          "type": "bytes32"
        }
      ],
      "name": "gameList",
      "outputs": [
        {
          "name": "",
          "type": "bool"
        }
      ],
      "payable": false,
      "stateMutability": "view",
      "type": "function"
    },
    {
      "constant": true,
      "inputs": [
        {
          "name": "",
          "type": "address"
        }
      ],
      "name": "users",
      "outputs": [
        {
          "name": "id",
          "type": "uint256"
        },
        {
          "name": "addr",
          "type": "address"
        }
      ],
      "payable": false,
      "stateMutability": "view",
      "type": "function"
    },
    {
      "inputs": [],
      "payable": false,
      "stateMutability": "nonpayable",
      "type": "constructor"
    },
    {
      "anonymous": false,
      "inputs": [
        {
          "indexed": false,
          "name": "game",
          "type": "string"
        }
      ],
      "name": "newGameAdd",
      "type": "event"
    },
    {
      "anonymous": false,
      "inputs": [
        {
          "indexed": false,
          "name": "game",
          "type": "string"
        }
      ],
      "name": "gameBought",
      "type": "event"
    },
    {
      "constant": false,
      "inputs": [
        {
          "name": "_name",
          "type": "string"
        },
        {
          "name": "_value",
          "type": "uint256"
        },
        {
          "name": "_data",
          "type": "string"
        }
      ],
      "name": "addGame",
      "outputs": [],
      "payable": false,
      "stateMutability": "nonpayable",
      "type": "function"
    },
    {
      "constant": false,
      "inputs": [
        {
          "name": "_gameId",
          "type": "uint256"
        }
      ],
      "name": "buyGame",
      "outputs": [],
      "payable": true,
      "stateMutability": "payable",
      "type": "function"
    },
    {
      "constant": true,
      "inputs": [],
      "name": "getGames",
      "outputs": [
        {
          "name": "",
          "type": "uint256[]"
        }
      ],
      "payable": false,
      "stateMutability": "view",
      "type": "function"
    }
  ],
  "bytecode": "0x608060405234801561001057600080fd5b50336000806101000a81548173ffffffffffffffffffffffffffffffffffffffff021916908373ffffffffffffffffffffffffffffffffffffffff160217905550610e96806100606000396000f3fe60806040526004361061007b5760003560e01c80639b08fb4a1161004e5780639b08fb4a146103a0578063a87430ba146103f3578063c04c59471461048b578063f7760517146104f75761007b565b806307973ccf14610080578063117a5b90146100ab5780633e9a35271461020c5780634d1975b414610375575b600080fd5b34801561008c57600080fd5b50610095610525565b6040518082815260200191505060405180910390f35b3480156100b757600080fd5b506100e4600480360360208110156100ce57600080fd5b810190808035906020019092919050505061052b565b6040518086815260200180602001858152602001806020018473ffffffffffffffffffffffffffffffffffffffff1673ffffffffffffffffffffffffffffffffffffffff168152602001838103835287818151815260200191508051906020019080838360005b8381101561016657808201518184015260208101905061014b565b50505050905090810190601f1680156101935780820380516001836020036101000a031916815260200191505b50838103825285818151815260200191508051906020019080838360005b838110156101cc5780820151818401526020810190506101b1565b50505050905090810190601f1680156101f95780820380516001836020036101000a031916815260200191505b5097505050505050505060405180910390f35b34801561021857600080fd5b506103736004803603606081101561022f57600080fd5b810190808035906020019064010000000081111561024c57600080fd5b82018360208201111561025e57600080fd5b8035906020019184600183028401116401000000008311171561028057600080fd5b91908080601f016020809104026020016040519081016040528093929190818152602001838380828437600081840152601f19601f82011690508083019250505050505050919291929080359060200190929190803590602001906401000000008111156102ed57600080fd5b8201836020820111156102ff57600080fd5b8035906020019184600183028401116401000000008311171561032157600080fd5b91908080601f016020809104026020016040519081016040528093929190818152602001838380828437600081840152601f19601f8201169050808301925050505050505091929192905050506106b1565b005b34801561038157600080fd5b5061038a6109a1565b6040518082815260200191505060405180910390f35b3480156103ac57600080fd5b506103d9600480360360208110156103c357600080fd5b81019080803590602001909291905050506109a7565b604051808215151515815260200191505060405180910390f35b3480156103ff57600080fd5b506104426004803603602081101561041657600080fd5b81019080803573ffffffffffffffffffffffffffffffffffffffff1690602001909291905050506109c7565b604051808381526020018273ffffffffffffffffffffffffffffffffffffffff1673ffffffffffffffffffffffffffffffffffffffff1681526020019250505060405180910390f35b34801561049757600080fd5b506104a0610a0b565b6040518080602001828103825283818151815260200191508051906020019060200280838360005b838110156104e35780820151818401526020810190506104c8565b505050509050019250505060405180910390f35b6105236004803603602081101561050d57600080fd5b8101908080359060200190929190505050610aa3565b005b60055481565b6001602052806000526040600020600091509050806000015490806001018054600181600116156101000203166002900480601f0160208091040260200160405190810160405280929190818152602001828054600181600116156101000203166002900480156105dd5780601f106105b2576101008083540402835291602001916105dd565b820191906000526020600020905b8154815290600101906020018083116105c057829003601f168201915b505050505090806002015490806003018054600181600116156101000203166002900480601f0160208091040260200160405190810160405280929190818152602001828054600181600116156101000203166002900480156106815780601f1061065657610100808354040283529160200191610681565b820191906000526020600020905b81548152906001019060200180831161066457829003601f168201915b5050505050908060040160009054906101000a900473ffffffffffffffffffffffffffffffffffffffff16905085565b6000836040516020018080602001828103825283818151815260200191508051906020019080838360005b838110156106f75780820151818401526020810190506106dc565b50505050905090810190601f1680156107245780820380516001836020036101000a031916815260200191505b50925050506040516020818303038152906040528051906020012090506003600082815260200190815260200160002060009054906101000a900460ff16156107d5576040517f08c379a00000000000000000000000000000000000000000000000000000000081526004018080602001828103825260138152602001807f47616d6520616c7265616479206578697374730000000000000000000000000081525060200191505060405180910390fd5b6004600081548092919060010191905055506040518060a0016040528060045481526020018581526020018481526020018381526020013373ffffffffffffffffffffffffffffffffffffffff16815250600160006004548152602001908152602001600020600082015181600001556020820151816001019080519060200190610861929190610dc5565b50604082015181600201556060820151816003019080519060200190610888929190610dc5565b5060808201518160040160006101000a81548173ffffffffffffffffffffffffffffffffffffffff021916908373ffffffffffffffffffffffffffffffffffffffff16021790555090505060016003600083815260200190815260200160002060006101000a81548160ff0219169083151502179055507fb58c4cbddf0a8a365cdc03d4f9dd16e62a97a6fcd26d18d1174735fa8f4e0b92846040518080602001828103825283818151815260200191508051906020019080838360005b83811015610961578082015181840152602081019050610946565b50505050905090810190601f16801561098e5780820380516001836020036101000a031916815260200191505b509250505060405180910390a150505050565b60045481565b60036020528060005260406000206000915054906101000a900460ff1681565b60026020528060005260406000206000915090508060000154908060010160009054906101000a900473ffffffffffffffffffffffffffffffffffffffff16905082565b6060600260003373ffffffffffffffffffffffffffffffffffffffff1673ffffffffffffffffffffffffffffffffffffffff168152602001908152602001600020600201805480602002602001604051908101604052809291908181526020018280548015610a9957602002820191906000526020600020905b815481526020019060010190808311610a85575b5050505050905090565b6001600082815260200190815260200160002060020154341015610b2f576040517f08c379a00000000000000000000000000000000000000000000000000000000081526004018080602001828103825260108152602001807f4e6f7420656e6f756768206d6f6e65790000000000000000000000000000000081525060200191505060405180910390fd5b6001600082815260200190815260200160002060040160009054906101000a900473ffffffffffffffffffffffffffffffffffffffff1673ffffffffffffffffffffffffffffffffffffffff166108fc349081150290604051600060405180830381858888f19350505050158015610bab573d6000803e3d6000fd5b50600560008154809291906001019190505550600554600260003373ffffffffffffffffffffffffffffffffffffffff1673ffffffffffffffffffffffffffffffffffffffff1681526020019081526020016000206000018190555033600260003373ffffffffffffffffffffffffffffffffffffffff1673ffffffffffffffffffffffffffffffffffffffff16815260200190815260200160002060010160006101000a81548173ffffffffffffffffffffffffffffffffffffffff021916908373ffffffffffffffffffffffffffffffffffffffff160217905550600260003373ffffffffffffffffffffffffffffffffffffffff1673ffffffffffffffffffffffffffffffffffffffff1681526020019081526020016000206002018190806001815401808255809150509060018203906000526020600020016000909192909190915055507f170bfead71ee0eafa5ee71ce4e426d03afcb28ec220b00d7a2235137170cf963600160008381526020019081526020016000206001016040518080602001828103825283818154600181600116156101000203166002900481526020019150805460018160011615610100020316600290048015610db45780601f10610d8957610100808354040283529160200191610db4565b820191906000526020600020905b815481529060010190602001808311610d9757829003601f168201915b50509250505060405180910390a150565b828054600181600116156101000203166002900490600052602060002090601f016020900481019282601f10610e0657805160ff1916838001178555610e34565b82800160010185558215610e34579182015b82811115610e33578251825591602001919060010190610e18565b5b509050610e419190610e45565b5090565b610e6791905b80821115610e63576000816000905550600101610e4b565b5090565b9056fea165627a7a72305820abff77af5214acf7ef96b3a637decb04cbb8db2b34d4dc07c468e9d084e297240029",
  "source": "pragma solidity ^0.5.8;\ncontract Games {\n\n    address owner;\n\n    constructor () public {\n        owner = msg.sender;\n    }\n\n    struct Game {\n        uint id;\n        string name;\n        uint value;\n        string imageData;\n        address payable gameOwner;\n    }\n\n    struct User {\n        uint id;\n        address addr;\n        uint[] gameOwnedId;\n    }\n\n\n    event newGameAdd(\n        string game\n    );\n\n    event gameBought(\n        string game\n    );\n\n    mapping(uint => Game) public games;\n    mapping(address => User) public users;\n    mapping(bytes32 => bool) public gameList;\n\n    uint public gameCount;\n    uint public userCount;\n\n    function addGame(string memory _name, uint _value, string memory _data) public {\n        bytes32 nameHahsing = keccak256(abi.encode(_name));\n        require(!gameList[nameHahsing], \"Game already exists\");\n\n        gameCount++;\n        games[gameCount] = Game(gameCount, _name, _value, _data, msg.sender);\n        gameList[nameHahsing] = true;\n        emit newGameAdd(_name);\n    }\n\n    function buyGame(uint _gameId) public payable {\n        require(msg.value >= games[_gameId].value, \"Not enough money\");\n\n        games[_gameId].gameOwner.transfer(msg.value);\n\n        userCount++;\n        users[msg.sender].id = userCount;\n        users[msg.sender].addr = msg.sender;\n        users[msg.sender].gameOwnedId.push(_gameId);\n\n        emit gameBought(games[_gameId].name);\n\n    }\n\n    function getGames() public view returns (uint[] memory) {\n        return users[msg.sender].gameOwnedId;\n    }\n\n    function checkGameOwned(uint _gameId) private view returns (bool) {\n\n    }\n\n}",
  "sourcePath": "/home/vabows/Documents/marketplace/contracts/Games.sol",
  "compiler": {
    "name": "solc",
    "version": "0.5.8+commit.23d335f2.Emscripten.clang"
  },
  "schemaVersion": "3.0.16",
  "updatedAt": "2019-10-22T01:20:06.702Z",
  "devdoc": {
    "methods": {}
  },
  "userdoc": {
    "methods": {}
  }
}