{
  "contractName": "Games",
  "abi": [
    {
      "constant": true,
      "inputs": [],
      "name": "userCount",
      "outputs": [
        {
          "name": "",
          "type": "uint256"
        }
      ],
      "payable": false,
      "stateMutability": "view",
      "type": "function"
    },
    {
      "constant": true,
      "inputs": [
        {
          "name": "",
          "type": "uint256"
        }
      ],
      "name": "games",
      "outputs": [
        {
          "name": "id",
          "type": "uint256"
        },
        {
          "name": "name",
          "type": "string"
        },
        {
          "name": "value",
          "type": "uint256"
        },
        {
          "name": "imageData",
          "type": "string"
        },
        {
          "name": "gameOwner",
          "type": "address"
        }
      ],
      "payable": false,
      "stateMutability": "view",
      "type": "function"
    },
    {
      "constant": true,
      "inputs": [],
      "name": "gameCount",
      "outputs": [
        {
          "name": "",
          "type": "uint256"
        }
      ],
      "payable": false,
      "stateMutability": "view",
      "type": "function"
    },
    {
      "constant": true,
      "inputs": [
        {
          "name": "",
          "type": "bytes32"
        }
      ],
      "name": "gameList",
      "outputs": [
        {
          "name": "",
          "type": "bool"
        }
      ],
      "payable": false,
      "stateMutability": "view",
      "type": "function"
    },
    {
      "constant": true,
      "inputs": [
        {
          "name": "",
          "type": "address"
        }
      ],
      "name": "users",
      "outputs": [
        {
          "name": "id",
          "type": "uint256"
        },
        {
          "name": "addr",
          "type": "address"
        },
        {
          "name": "gameOwned",
          "type": "string"
        },
        {
          "name": "gameOwnedId",
          "type": "uint256"
        }
      ],
      "payable": false,
      "stateMutability": "view",
      "type": "function"
    },
    {
      "anonymous": false,
      "inputs": [
        {
          "indexed": false,
          "name": "game",
          "type": "string"
        }
      ],
      "name": "newGameAdd",
      "type": "event"
    },
    {
      "constant": false,
      "inputs": [
        {
          "name": "_name",
          "type": "string"
        },
        {
          "name": "_value",
          "type": "uint256"
        },
        {
          "name": "_data",
          "type": "string"
        }
      ],
      "name": "addGame",
      "outputs": [],
      "payable": false,
      "stateMutability": "nonpayable",
      "type": "function"
    },
    {
      "constant": false,
      "inputs": [
        {
          "name": "_gameId",
          "type": "uint256"
        }
      ],
      "name": "buyGame",
      "outputs": [],
      "payable": true,
      "stateMutability": "payable",
      "type": "function"
    },
    {
      "constant": true,
      "inputs": [
        {
          "name": "addr",
          "type": "address"
        }
      ],
      "name": "gameOwned",
      "outputs": [],
      "payable": false,
      "stateMutability": "view",
      "type": "function"
    }
  ],
  "bytecode": "0x608060405234801561001057600080fd5b50610f4e806100206000396000f3fe60806040526004361061007b5760003560e01c80639b08fb4a1161004e5780639b08fb4a146103a0578063a87430ba146103f3578063a8efc464146104fe578063f77605171461054f5761007b565b806307973ccf14610080578063117a5b90146100ab5780633e9a35271461020c5780634d1975b414610375575b600080fd5b34801561008c57600080fd5b5061009561057d565b6040518082815260200191505060405180910390f35b3480156100b757600080fd5b506100e4600480360360208110156100ce57600080fd5b8101908080359060200190929190505050610583565b6040518086815260200180602001858152602001806020018473ffffffffffffffffffffffffffffffffffffffff1673ffffffffffffffffffffffffffffffffffffffff168152602001838103835287818151815260200191508051906020019080838360005b8381101561016657808201518184015260208101905061014b565b50505050905090810190601f1680156101935780820380516001836020036101000a031916815260200191505b50838103825285818151815260200191508051906020019080838360005b838110156101cc5780820151818401526020810190506101b1565b50505050905090810190601f1680156101f95780820380516001836020036101000a031916815260200191505b5097505050505050505060405180910390f35b34801561021857600080fd5b506103736004803603606081101561022f57600080fd5b810190808035906020019064010000000081111561024c57600080fd5b82018360208201111561025e57600080fd5b8035906020019184600183028401116401000000008311171561028057600080fd5b91908080601f016020809104026020016040519081016040528093929190818152602001838380828437600081840152601f19601f82011690508083019250505050505050919291929080359060200190929190803590602001906401000000008111156102ed57600080fd5b8201836020820111156102ff57600080fd5b8035906020019184600183028401116401000000008311171561032157600080fd5b91908080601f016020809104026020016040519081016040528093929190818152602001838380828437600081840152601f19601f820116905080830192505050505050509192919290505050610709565b005b34801561038157600080fd5b5061038a6109f8565b6040518082815260200191505060405180910390f35b3480156103ac57600080fd5b506103d9600480360360208110156103c357600080fd5b81019080803590602001909291905050506109fe565b604051808215151515815260200191505060405180910390f35b3480156103ff57600080fd5b506104426004803603602081101561041657600080fd5b81019080803573ffffffffffffffffffffffffffffffffffffffff169060200190929190505050610a1e565b604051808581526020018473ffffffffffffffffffffffffffffffffffffffff1673ffffffffffffffffffffffffffffffffffffffff16815260200180602001838152602001828103825284818151815260200191508051906020019080838360005b838110156104c05780820151818401526020810190506104a5565b50505050905090810190601f1680156104ed5780820380516001836020036101000a031916815260200191505b509550505050505060405180910390f35b34801561050a57600080fd5b5061054d6004803603602081101561052157600080fd5b81019080803573ffffffffffffffffffffffffffffffffffffffff169060200190929190505050610b06565b005b61057b6004803603602081101561056557600080fd5b8101908080359060200190929190505050610b09565b005b60045481565b6000602052806000526040600020600091509050806000015490806001018054600181600116156101000203166002900480601f0160208091040260200160405190810160405280929190818152602001828054600181600116156101000203166002900480156106355780601f1061060a57610100808354040283529160200191610635565b820191906000526020600020905b81548152906001019060200180831161061857829003601f168201915b505050505090806002015490806003018054600181600116156101000203166002900480601f0160208091040260200160405190810160405280929190818152602001828054600181600116156101000203166002900480156106d95780601f106106ae576101008083540402835291602001916106d9565b820191906000526020600020905b8154815290600101906020018083116106bc57829003601f168201915b5050505050908060040160009054906101000a900473ffffffffffffffffffffffffffffffffffffffff16905085565b6000836040516020018080602001828103825283818151815260200191508051906020019080838360005b8381101561074f578082015181840152602081019050610734565b50505050905090810190601f16801561077c5780820380516001836020036101000a031916815260200191505b50925050506040516020818303038152906040528051906020012090506002600082815260200190815260200160002060009054906101000a900460ff161561082d576040517f08c379a00000000000000000000000000000000000000000000000000000000081526004018080602001828103825260138152602001807f47616d6520616c7265616479206578697374730000000000000000000000000081525060200191505060405180910390fd5b6003600081548092919060010191905055506040518060a0016040528060035481526020018581526020018481526020018381526020013373ffffffffffffffffffffffffffffffffffffffff1681525060008060035481526020019081526020016000206000820151816000015560208201518160010190805190602001906108b8929190610e7d565b506040820151816002015560608201518160030190805190602001906108df929190610e7d565b5060808201518160040160006101000a81548173ffffffffffffffffffffffffffffffffffffffff021916908373ffffffffffffffffffffffffffffffffffffffff16021790555090505060016002600083815260200190815260200160002060006101000a81548160ff0219169083151502179055507fb58c4cbddf0a8a365cdc03d4f9dd16e62a97a6fcd26d18d1174735fa8f4e0b92846040518080602001828103825283818151815260200191508051906020019080838360005b838110156109b857808201518184015260208101905061099d565b50505050905090810190601f1680156109e55780820380516001836020036101000a031916815260200191505b509250505060405180910390a150505050565b60035481565b60026020528060005260406000206000915054906101000a900460ff1681565b60016020528060005260406000206000915090508060000154908060010160009054906101000a900473ffffffffffffffffffffffffffffffffffffffff1690806002018054600181600116156101000203166002900480601f016020809104026020016040519081016040528092919081815260200182805460018160011615610100020316600290048015610af65780601f10610acb57610100808354040283529160200191610af6565b820191906000526020600020905b815481529060010190602001808311610ad957829003601f168201915b5050505050908060030154905084565b50565b60008082815260200190815260200160002060020154341015610b94576040517f08c379a00000000000000000000000000000000000000000000000000000000081526004018080602001828103825260108152602001807f4e6f7420656e6f756768206d6f6e65790000000000000000000000000000000081525060200191505060405180910390fd5b80600160003373ffffffffffffffffffffffffffffffffffffffff1673ffffffffffffffffffffffffffffffffffffffff168152602001908152602001600020600301541415610c4c576040517f08c379a000000000000000000000000000000000000000000000000000000000815260040180806020018281038252601a8152602001807f596f7520616c7265616479206861766520746869732067616d6500000000000081525060200191505060405180910390fd5b60008082815260200190815260200160002060040160009054906101000a900473ffffffffffffffffffffffffffffffffffffffff1673ffffffffffffffffffffffffffffffffffffffff166108fc349081150290604051600060405180830381858888f19350505050158015610cc7573d6000803e3d6000fd5b50600460008154809291906001019190505550604051806080016040528060045481526020013373ffffffffffffffffffffffffffffffffffffffff1681526020016000808481526020019081526020016000206001018054600181600116156101000203166002900480601f016020809104026020016040519081016040528092919081815260200182805460018160011615610100020316600290048015610db25780601f10610d8757610100808354040283529160200191610db2565b820191906000526020600020905b815481529060010190602001808311610d9557829003601f168201915b5050505050815260200182815250600160003373ffffffffffffffffffffffffffffffffffffffff1673ffffffffffffffffffffffffffffffffffffffff1681526020019081526020016000206000820151816000015560208201518160010160006101000a81548173ffffffffffffffffffffffffffffffffffffffff021916908373ffffffffffffffffffffffffffffffffffffffff1602179055506040820151816002019080519060200190610e6c929190610e7d565b506060820151816003015590505050565b828054600181600116156101000203166002900490600052602060002090601f016020900481019282601f10610ebe57805160ff1916838001178555610eec565b82800160010185558215610eec579182015b82811115610eeb578251825591602001919060010190610ed0565b5b509050610ef99190610efd565b5090565b610f1f91905b80821115610f1b576000816000905550600101610f03565b5090565b9056fea165627a7a72305820dd8c329b70996dc3eb66c93380e2ea9f8aef56967fd073602da507e0058a4f860029",
  "source": "pragma solidity ^0.5.8;\ncontract Games {\n\n    struct Game {\n        uint id;\n        string name;\n        uint value;\n        string imageData;\n        address payable gameOwner;\n    }\n\n    struct User {\n        uint id;\n        address addr;\n        string gameOwned;\n        uint gameOwnedId;\n    }\n\n\n    event newGameAdd(\n        string game\n    );\n\n    mapping(uint => Game) public games;\n    mapping(address => User) public users;\n    mapping(bytes32 => bool) public gameList;\n\n    uint public gameCount;\n    uint public userCount;\n\n    function addGame(string memory _name, uint _value, string memory _data) public {\n        bytes32 nameHahsing = keccak256(abi.encode(_name));\n        require(!gameList[nameHahsing], \"Game already exists\");\n\n        gameCount++;\n        games[gameCount] = Game(gameCount, _name, _value, _data, msg.sender);\n        gameList[nameHahsing] = true;\n        emit newGameAdd(_name);\n    }\n\n    function buyGame(uint _gameId) public payable {\n        require(msg.value >= games[_gameId].value, \"Not enough money\");\n        require(users[msg.sender].gameOwnedId != _gameId, \"You already have this game\");\n\n        games[_gameId].gameOwner.transfer(msg.value);\n        userCount++;\n        users[msg.sender] = User(userCount, msg.sender, games[_gameId].name, _gameId);\n    }\n\n    function gameOwned(address addr) public view {\n        return;\n    }\n\n}",
  "sourcePath": "/home/vabows/Documents/marketplace/contracts/Games.sol",
  "compiler": {
    "name": "solc",
    "version": "0.5.8+commit.23d335f2.Emscripten.clang"
  },
  "schemaVersion": "3.0.16",
  "updatedAt": "2019-10-21T14:39:46.572Z",
  "devdoc": {
    "methods": {}
  },
  "userdoc": {
    "methods": {}
  }
}